:100000000C9434000C9449000C9449000C94490061
:100010000C9449000C9449000C9449000C9449003C
:100020000C9449000C9449000C9449000C9449002C
:100030000C9449000C9449000C9449000C9449001C
:100040000C9449000C9449000C9449000C9449000C
:100050000C9449000C9449000C9449000C944900FC
:100060000C9449000C94490011241FBECFEFD8E036
:10007000DEBFCDBF11E0A0E0B1E0E6EBF4E002C0EE
:1000800005900D92A430B107D9F70E94B3000C94EB
:1000900059020C94000085E480937C0085E88093ED
:1000A0007A0008951092C00088E18093C10086E034
:1000B0008093C2001092C50087E68093C400089523
:1000C0009091C00095FFFCCF8093C60008950F93D8
:1000D0001F93CF938C01C0E003C00E946000CF5FEC
:1000E000F801EC0FF11D80818111F7CFCF911F91A5
:1000F0000F910895CF93DF93CDB7DEB728970FB652
:10010000F894DEBF0FBECDBF4AE050E0BE016F5F86
:100110007F4F0E941902CE0101960E946700289627
:100120000FB6F894DEBF0FBECDBFDF91CF9108951B
:10013000EAE7F0E080818065808380917A0084FF27
:10014000FCCF809178009091790008950E947A0008
:1001500080E091E00E94670083E294EF0197F1F75D
:1001600000C0000008950E944B000E945200C0E0B1
:10017000D0E004C00E9498008C012196C931D105BD
:10018000CCF3B80180E090E00E940F0120E030E065
:1001900040EC5FE30E9475010E94E0009B01ADEC22
:1001A000BCEC0E940A029695879596958795969540
:1001B00087958C010F581109C8010E94A600D7CF5E
:1001C0000E94540188F09F5798F0B92F9927B75192
:1001D000B0F0E1F0660F771F881F991F1AF0BA95EB
:1001E000C9F714C0B13091F00E946E01B1E00895DA
:1001F0000C946E01672F782F8827B85F39F0B93FCC
:10020000CCF3869577956795B395D9F73EF490959D
:100210008095709561957F4F8F4F9F4F0895E8941B
:1002200009C097FB3EF490958095709561957F4F3E
:100230008F4F9F4F9923A9F0F92F96E9BB279395EC
:10024000F695879577956795B795F111F8CFFAF4FC
:10025000BB0F11F460FF1BC06F5F7F4F8F4F9F4F2D
:1002600016C0882311F096E911C0772321F09EE88B
:10027000872F762F05C0662371F096E8862F70E0F1
:1002800060E02AF09A95660F771F881FDAF7880FCB
:100290009695879597F9089557FD9058440F551FE7
:1002A00059F05F3F71F04795880F97FB991F61F0F8
:1002B0009F3F79F087950895121613061406551F6F
:1002C000F2CF4695F1DF08C0161617061806991FDB
:1002D000F1CF86957105610508940895E894BB27D0
:1002E00066277727CB0197F908950E9488010C941F
:1002F000F9010E94EB0138F00E94F20120F09523F1
:1003000011F00C94E2010C94E80111240C946F019B
:100310000E944C0170F3959FC1F3950F50E0551F5B
:10032000629FF001729FBB27F00DB11D639FAA274A
:10033000F00DB11DAA1F649F6627B00DA11D661F99
:10034000829F2227B00DA11D621F739FB00DA11DBA
:10035000621F839FA00D611D221F749F3327A00D74
:10036000611D231F849F600D211D822F762F6A2F10
:1003700011249F5750409AF0F1F088234AF0EE0F75
:10038000FF1FBB1F661F771F881F91505040A9F7A2
:100390009E3F510580F00C94E2010C946F015F3F89
:1003A000E4F3983ED4F3869577956795B795F795DE
:1003B000E7959F5FC1F7FE2B880F911D9695879556
:1003C00097F9089597F99F6780E870E060E00895D5
:1003D0009FEF80EC089500240A941616170618065D
:1003E0000906089500240A94121613061406050639
:1003F0000895092E0394000C11F4882352F0BB0FCA
:1004000040F4BF2B11F460FF04C06F5F7F4F8F4F2C
:100410009F4F0895A29FB001B39FC001A39F700D8D
:10042000811D1124911DB29F700D811D1124911DFC
:1004300008954532510520F4423010F00C94240206
:10044000FB011082CB010895BB274A3031F4992378
:1004500022F4BDE2909581959F4F0C943002BB270A
:10046000FB015527AA27880F991FAA1FA41710F070
:10047000A41B83955051B9F7A05DAA3308F0A95D7C
:10048000A193009779F7B111B1931192CB010C941C
:100490004902DC01FC01672F71917723E1F7329764
:1004A00004C07C916D9370836291AE17BF07C8F34F
:0604B0000895F894FFCF4F
:0404B6000A0D00002B
:00000001FF
