S01800004164656D68616C696E67736D657465722E7372656392
S11300000C9434000C9449000C9449000C9449005D
S11300100C9449000C9449000C9449000C94490038
S11300200C9449000C9449000C9449000C94490028
S11300300C9449000C9449000C9449000C94490018
S11300400C9449000C9449000C9449000C94490008
S11300500C9449000C9449000C9449000C944900F8
S11300600C9449000C94490011241FBECFEFD8E032
S1130070DEBFCDBF11E0A0E0B1E0EAE5F2E002C0EE
S113008005900D92A430B107D9F70E94B6000C94E4
S11300902B010C94000085E480937C0085E8809318
S11300A07A0008951092C00088E18093C10086E030
S11300B08093C2001092C50087E68093C40008951F
S11300C09091C00095FFFCCF8093C60008950F93D4
S11300D01F93CF938C01C0E003C00E946000CF5FE8
S11300E0F801EC0FF11D80818111F7CFCF911F91A1
S11300F00F910895CF93DF93CDB7DEB728970FB64E
S1130100F894DEBF0FBECDBF4AE050E0BE016F5F82
S11301107F4F0E94EB00CE0101960E946700289653
S11301200FB6F894DEBF0FBECDBFDF91CF91089517
S1130130EAE7F0E080818065808380917A0084FF23
S1130140FCCF809178009091790008950E947A0004
S113015080E091E00E9467002FEF84E39CE021504F
S113016080409040E1F700C0000008950E944B00D9
S11301700E94520000E010E0C0E0D0E005C00E9400
S11301809800080F191F2196CF30D105C4F39801A8
S1130190A9E8B8E80E94DC008C011695079516952D
S11301A00795169507950B3F110510F000E010E038
S11301B0C8010E94A600E0CFA29FB001B39FC00176
S11301C0A39F700D811D1124911DB29F700D811D7F
S11301D01124911D08954532510520F4423010F048
S11301E00C94F600FB011082CB010895BB274A3022
S11301F031F4992322F4BDE2909581959F4F0C949C
S11302000201BB27FB015527AA27880F991FAA1FA4
S1130210A41710F0A41B83955051B9F7A05DAA331D
S113022008F0A95DA193009779F7B111B1931192E8
S1130230CB010C941B01DC01FC01672F7191772326
S1130240E1F7329704C07C916D9370836291AE178D
S10D0250BF07C8F30895F894FFCF28
S107025A0A0D000085
S9030000FC
